:020000040800F2
:100000000000012039170008711700087117000857
:100010007117000871170008711700080000000030
:100020000000000000000000000000007117000840
:100030007117000800000000711700087117000810
:100040007117000871170008711700087117000870
:100050007117000871170008711700087117000860
:100060007117000871170008711700087117000850
:100070007117000871170008711700087117000840
:100080007117000871170008711700086104000853
:100090006504000871170008710300087117000853
:1000A0007117000871170008711700087117000810
:1000B0007117000800000000000000007117000820
:1000C0007117000800000000000000007117000810
:1000D0000000000071170008711700080000000000
:1000E00071170008711700080000000000000000F0
:1000F0000000000000000000000000000000000000
:10010000000000000000000000000000711700085F
:1001100000000000000000007117000871170008BF
:10012000711700087117000871170008711700088F
:10013000711700080000000000000000000000002F
:10014000711700087117000871170008711700086F
:10015000711700087117000871170008711700085F
:1001600071170008711700087117000800000000DF
:10017000711700087117000800000000000000005F
:1001800071170008711700087117000810B5054CA9
:10019000237833B9044B13B10448AFF30080012333
:1001A000237010BD480B002000000000E4C20008CE
:1001B00008B5064B1BB106480649AFF30080064858
:1001C000036813B1054B03B1984708BD0000000058
:1001D000E4C200084C0B0020440B0020000000008B
:1001E000154B002B08BF134B9D46A3F5803A002109
:1001F0008B460F461348144A121A04F0E5FD0F4BC4
:10020000002B00D098470E4B002B00D098470020C1
:10021000002104000D000D48002802D00C4800F019
:1002200076FC04F0B3FB2000290000F0FDFE00F096
:100230006BFC00BF0000080000000120000000006F
:1002400019100008480B0020681000200F0B000850
:100250000000000010B5094B036003F12002803359
:100260000446C0F8BC20C0F8C030BC3003F050FDDC
:10027000204603F07BF8204610BD00BF98BA000866
:10028000A0F1C000FFF7E6BFA0F1BC00FFF7E2BF9E
:1002900010B50446FFF7DEFF204600F09EFD204625
:1002A00010BDA0F1C000F3E7A0F1BC00F0E7000032
:1002B00010B50446044B40F8043B23690BB19B681E
:1002C0009847204610BD00BF28BB000810B5044663
:1002D000FFF7EEFF204600F080FD204610BD000035
:1002E00008B50449044803F025FD4FF07E5003F0A3
:1002F0004DFDF6E748B50008200C002073B5154CFD
:10030000154D164E4FF4165300932046002302213C
:100310000F2202F0B1FD2A4620461149114C00F08F
:10032000F1FB0221002000F085FF01213080002038
:1003300000F080FF0C4BB6F90020188001462046E3
:1003400002F0DEFD094920462A4602B0BDE87040B1
:1003500000F0D8BB640B002088010020160D00209F
:10036000550200083C0C0020140D0020B1020008CA
:10037000354B5A69D20770B528D59868334E9968BD
:10038000334D9A68334C3040B04201EA050104BF56
:1003900001269E60A9422C4B02EA040204BF4FF4DE
:1003A00080759D60A24204BF4FF480349C60274B4F
:1003B000984205D0264B994202D0264B9A4205D14D
:1003C000254B264A1B681068012198471E4CE2689D
:1003D0006369960707D09D0705D51F4B1F4A1B6809
:1003E000106800219847A169626963698C0709D583
:1003F000900507D5190405D5174B184A1B681068D6
:1004000005219847104A95695469526915F0040509
:1004100004F4806408D03CB1120405D50E4B0F4A99
:100420001B68106807219847074B5B6955B14CB1B1
:100430001B0407D5084B094A1B6810680221BDE858
:100440007040184770BD00BF006400400300000406
:1004500000030008000003101C0D0020180D0020F0
:10046000FFF786BFFFF784BF30B5036891FAA1F4A8
:10047000B4FA84F491FAA1F10325B1FA81F1640090
:1004800005FA04F4490023EA040302FA01F11943CE
:10049000016030BD1FB5072838D8DFE800F004132D
:1004A0001F373737372B1C4BDA6C42F00102DA6406
:1004B000DB6C03F001030093009B4FF0904005B00C
:1004C0005DF804FB144B1548DA6C42F00202DA6462
:1004D000DB6C03F002030193019BF0E70E4B104825
:1004E000DA6C42F00402DA64DB6C03F0040302937A
:1004F000029BE4E7084B0B48DA6C42F08002DA64B6
:10050000DB6C03F080030393039BD8E7064803F0FA
:100510003DFB0020D3E700BF00100240000400486C
:1005200000080048001C004810B60008431C10B525
:10053000044604D176220649064802F059FF2046B7
:10054000002100F095FD04F00F040120A04010BD33
:1005500031B600088BB6000870B504464B1C0E4639
:10056000218218D0C1F30310FFF794FF05463046EF
:10057000FFF7DCFF238A084A656103F00F03206060
:1005800052F82330A36105F11003636005F11803ED
:100590002835A360E56070BD98B80008B0F9100078
:1005A00000F0FEBD0A4619B981694069FFF75CBFDA
:1005B0000122F9E708B502F0A9FB002008BD000000
:1005C00008B50A4B1B684BB102F0B4FD03F0EAF822
:1005D0004FF47A72002309F0EDFE08BD02F0F6FB3D
:1005E0004FF47A73B0FBF3F008BD00BF200D00207C
:1005F000144B02681B68416DB3FBF1F11423426098
:100600004B439169090401D5013BFAD10E4B9A4243
:100610000AD103F5DE339A6B42F400129A639A6BA7
:1006200022F400129A637047084B9A42FBD103F5FB
:10063000DA339A6B42F400029A639A6B22F4000256
:10064000F0E700BF9002002000540040005C004032
:10065000F8B5404F426D3B68B3FBF2F214235343AD
:10066000426804460D46061D9169090401D5013B07
:10067000FAD1394B9D420BD0384B9D4208D0384BB4
:100680009D4205D040F271123649374802F0B0FE63
:10069000364B3A689A42324B40D1304A954207D0A5
:1006A0009D4239D0324B2C4A954218BF002300E0BE
:1006B000304BA3602A4B9D420FD122682E4B9A42A9
:1006C00003D14FF4801001F0EBF822682B4B9A42D3
:1006D00003D14FF4800001F0E3F82368264A9342E7
:1006E0002CD102F5DE32D2F8883023F4405343F4A3
:1006F0008053C2F888300021304601F0ABF8012366
:1007000023610023636123626362E360A361304677
:1007100001F04FF86565F8BD194BCAE719498A42DF
:100720000AD10E4A954203D09D4203D0164BBAE738
:10073000164BBEE7164BBCE70023BAE70F4A9342BD
:10074000D9D102F5DA32D2F8883023F4403343F4B9
:100750008033CEE790020020A0860100801A0600B8
:1007600040420F009EB60008F7B6000800B4C4046B
:100770006B4EC1303A14D11000540040005C004070
:10078000270E8100006CDC02553EA020210C801059
:1007900016085000F7B50E4604463A49304615464D
:1007A00002F06CFC38490746284602F067FCA4F8C2
:1007B00058600146A4F85A50384602F039FC2060CF
:1007C000013005D140F211123049314802F010FEDB
:1007D0002368304A93423FD1002384F8503003F11C
:1007E000804303F504339A6D42F400129A659B6DC1
:1007F00003F400130093009B1F2384F85C30202334
:1008000084F85D301F49304602F0EEFB1E49284651
:1008100002F0EAFB0421304600F0C2FC0421284625
:1008200000F0BEFC636D0BB91B4B63652046FFF700
:10083000DFFE616D2046FFF70BFF00234FF00072D3
:1008400084F86D3084F86C3084F86E30226684F859
:100850006430A36603B0F0BD104A9342D2D10223A4
:1008600084F850300E4B9A6D42F400029A659B6DED
:1008700003F400030193019B482384F85C3049236F
:10088000BEE700BF80B5000850B500089EB600085E
:100890002BB7000800540040A0860100005C004017
:1008A0000010024010B588B002F09CFF132101A88F
:1008B00002F097FB0424039B019A1A60962003F030
:1008C00073FA049B019A1A60962003F06DFA013CBA
:1008D000F1D10424039B019A1A604FF4C87003F00D
:1008E00063FA049B019A1A604FF4C87003F05CFA33
:1008F000013CEFD1DEE7000070B50D46A0B0044624
:1009000002F070FF2B4622468021684606F092F8DE
:10091000051E03DC02F07CFF20B070BD094B1B6894
:1009200023B90F220221084800F066FD064E00247C
:100930001DF804103046013400F0E6FEA542F7D160
:10094000E8E700BF3C0D0020600E00200FB407B5A3
:1009500004A951F8040B0191FFF7CEFF03B05DF835
:1009600004EB04B07047000008B502F05FF900F036
:1009700001FF02F04FF902F059F9024B01221A600F
:1009800008BD00BF200D0020002070470368012231
:100990001B6900211847036800221B69114618478C
:1009A00003681B69184703689B69184703689B6ABB
:1009B000184700290CBF6FF0180000207047012075
:1009C00070471120704770476FF01C0070476FF040
:1009D00015007047012070470020704770470000E5
:1009E000F8B5074E15460C468F18BC4205D014F8D2
:1009F000011B304600F088FEF7E72846F8BD00BF2F
:100A0000600E002038B58DB215F0010405D00848FD
:100A100000F028FC041C18BF0124EB0605D504488F
:100A200000F030FC08B144F01004204638BD00BF8F
:100A3000600E002010B5044604F048F8204610BDB2
:100A400010B50C462AB1044800F048FE2070012081
:100A500010BD104610BD00BF600E002038B51D4609
:100A6000074B0360074B1B68044633B9064800F088
:100A7000C3FC2946044800F055FC204638BD00BFA1
:100A80007CB700083C0D0020600E0020002070475D
:100A90000020704708B5012000F036F80C4A1368B2
:100AA00010B51844EFF30881884205D3094B0C2296
:100AB0001A604FF0FF3010BD07490C6824B1074998
:100AC000096821448842F1D21060184610BD00BF69
:100AD0008C02002060100020340D0020380D002012
:100AE000074C08B523680546986803F0B7FA2368F1
:100AF000D86803F0B3FA0DB1FFF7D4FEFEE700BFEC
:100B0000C00600200120704708B5FFF7E9FF01206B
:100B10007047002104F04ABA7047704708B5FFF7E4
:100B2000FBFF08BD08B5FFF7F8FF08BD10B5037857
:100B300003F00303012B04460CD02BB140F2A95261
:100B40000549064802F054FC237843F00203237061
:100B5000012010BD002010BDC4B700081BB800085C
:100B600010B5037803F00303022B044605D040F2CE
:100B7000B1520549054802F03BFC237823F00303FA
:100B800043F00103237010BDC4B7000841B800084A
:100B90003F2870B504462FDC184D55F820305A1CFC
:100BA00013D1022811DCFFF773FF034658B9204622
:100BB000FFF76CFF034630B9114E3378BFF35B8FFC
:100BC000DB0704D50F4B45F82430184670BD30467E
:100BD000FFF7ACFF0028F5D04FF416530F22022187
:100BE0000848FFF73BFF3046FFF7BAFF064A0749C0
:100BF0000448FFF787FFE5E70023E6E78C010020C4
:100C0000240D0020300D002088010020DD0900089F
:100C100038B50546FFF7BCFF0B4B002443F82540D1
:100C200030B903F00DF9092303604FF0FF3038BDF0
:100C300003685B699847051E04DA03F001F96D4209
:100C40000560F2E7204638BD8C010020FFF7E0BFC9
:100C500038B50C461546FFF79BFF38B903F0F0F89E
:100C6000092303604FF0FF34204638BD0368214656
:100C7000DB682A469847041EF6DA03F0E1F864427E
:100C80000460EFE708B5131E06DA03F0D9F816235F
:100C900003604FF0FF3008BD04D0FFF7D9FF40EAF2
:100CA000E07008BD184608BD38B50C461546FFF77C
:100CB0006FFF38B903F0C4F8092303604FF0FF3425
:100CC000204638BD036821469B682A469847041E83
:100CD000F6DA03F0B5F864420460EFE7002A08B5DD
:100CE00003DBBDE80840FFF7DFBF03F0A9F81623D8
:100CF00003604FF0FF3008BD10B5FFF749FF044611
:100D000028B903F09DF809230360204610BD03684D
:100D1000DB699847041EF8DA03F092F86442046035
:100D20000024F2E71FB504220C4640230DEB02011C
:100D300001900DF109008DF8083003F04BFF2146BA
:100D400002A803F0C3FA044630B10198FFF7D4FFBC
:100D500010B12046FFF7DDFE204604B010BDFFF7BE
:100D6000CBBF38B50C461546FFF712FF38B903F074
:100D700067F8092303604FF0FF34204638BD03684D
:100D800021461B692A469847041EF6DA03F058F8F4
:100D900064420460EFE7FFF7E4BF38B50D46FFF7A4
:100DA000F7FE044630B903F04BF8092303604FF017
:100DB000FF3038BD0368DB699847002814BF4FF443
:100DC00000534FF400436B60236820469B6A9847AA
:100DD0002861002038BDFFF7E0BF03F077BE0000B8
:100DE000034610B553F8042B044602B90360226889
:100DF0009A4204D066220349034802F0F9FA2068B7
:100E000010BD00BF45B700085FB7000810B5044625
:100E10000948FFF7E5FF0023084A194652F8230066
:100E2000A04208BF42F823100133402BF6D10248FC
:100E3000FFF7D6FF10BD00BF280D00208C01002059
:100E400010B50F48FFF7CCFF0E4B032453F82420B6
:100E50006AB10134402CF9D102F0F2FF182303608B
:100E60000748FFF7BDFF4FF0FF34204610BD4FF09D
:100E7000FF32034843F82420FFF7B2FFF5E700BF35
:100E8000280D00208C01002010B50446FFF7D8FF84
:100E90000028A4BF014B43F8204010BD8C01002066
:100EA00070B506460C46FFF7EFFF054690B12146A8
:100EB000FFF738FF044630B9074B53F82520964218
:100EC00003D143F82500204670BD02F0B9FF092385
:100ED0000360F8E70446F6E78C0100200EB42DE924
:100EE000F04185B00546FFF7ABFF041E13DB00237E
:100EF000294602A8019302F0ADFC02A802F0FCFC16
:100F00001B4D064668B902F09BFF1323036045F8AA
:100F100024604FF0FF34204605B0BDE8F04103B037
:100F2000704702A802F0D6FC074602A837B102F0CB
:100F3000DAFC0190019B45F82430ECE702F0C1FC9B
:100F400006460028DFD0036802A8D3F8088002F024
:100F5000ADFC0B9B024601A93046C047064600285F
:100F6000E8D002F06DFF7642066045F82470D0E7C5
:100F70008C01002073B50E461849054604F0E0F8D0
:100F8000044620B9FFF704FE204602B070BD1449A4
:100F9000284604F0D5F820B90120FFF7F9FD012417
:100FA000F2E71049284604F0CBF820B90220FFF7F9
:100FB000EFFD0224E8E72B78402B07D10422691CBF
:100FC0000DEB020003F006FE019CDDE726F4004174
:100FD0002846FFF783FF0446D6E700BF88B800081D
:100FE0008FB8000880B8000870477047074B084961
:100FF0009A68084810B5043A52F8044F41F8044F73
:101000008142F9D14FF000529A6010BD00ED00E02E
:10101000FCFFFF1F8401002008B5FFF7E7FFFFF783
:10102000A3FCFFF7E2FF08BD08B5FFF7DDFFBDE851
:101030000840FFF755B930B5C36891FAA1F4B4FA86
:1010400084F491FAA1F10325B1FA81F1640005FA63
:1010500004F4490023EA040302FA01F11943C160D0
:1010600030BD012A02D0022A18BF0022FFF7E3BFD9
:101070002DE9F0410E46411C044604D13E2244496C
:10108000444802F0B5F904F00F08434BC4F30310D1
:1010900053F82850FFF7FEF906F007070446836867
:1010A00095FAA5F1B1FA81F195FAA5F2032049006C
:1010B00000FA01F1B2FA82F223EA0103520002219E
:1010C00001FA02F21343A360874236D8DFE807F043
:1010D0001D1D021DB8F1070FC6F3032017D9626A60
:1010E0002B0A93FAA3F1B1FA81F193FAA3F34FF02B
:1010F0000F0EB3FA83F389000EFA01F19B0022EA86
:10110000010200FA03F3134363623B461BE0226AC9
:1011100095FAA5F3B3FA83F395FAA5F14FF00F0E04
:10112000B1FA81F19B000EFA03F3890022EA03026F
:1011300000FA01F313432362E7E7672214491748D3
:1011400002F056F90023226895FAA5F0B0FA80F073
:1011500095FAA5F14FF0030EB1FA81F140000EFAB5
:1011600000F0490022EA00028B40013F1343012FA7
:10117000236005D8636832074CBF2B43AB436360E1
:10118000C6F3011229462046BDE8F041FFF769BFCA
:10119000D8B800088BB6000898B80008A4BD0008AD
:1011A000431C70B506460D4604D188221E491F48CF
:1011B00002F01EF906F00F021D4BC6F3031053F8A0
:1011C0002240FFF767F9066894FAA4F1B1FA81F3B7
:1011D00094FAA4F259000323B2FA82F28B4033400E
:1011E0005200D340013B012B05D8EB1E022B436874
:1011F00009D823434360032D08D101222146BDE8CD
:101200007040FFF72EBF23EA04034360012DF4D0A2
:10121000052D01D0022D01D10222EFE72146002247
:10122000BDE87040FFF707BFD8B800088BB60008CC
:1012300098B8000801EB001000B270470FB407B572
:10124000064B07491B6805AAD868019205F080FB88
:1012500003B05DF804EB04B0704700BFC006002087
:1012600030B90008426878235343054AD358DA69F5
:10127000120744BF08221A62D869C0F340107047B1
:10128000AC0E0020426878235343034AD358D869F0
:10129000C0F3C010704700BFAC0E00204268016868
:1012A000782353431D4A10B599509C188268626098
:1012B000C368A3600369E36043692361036AA361B0
:1012C0000023A4F85230E361A4F85030A4F85A3057
:1012D000A4F85830B0F91A30013312D108236361F1
:1012E0000F4B994208D1B2F5165F204610D801F095
:1012F000D6FB204601F0BDFB2046BDE8104001F0C2
:1013000086BBB0F9183001330CBF04230C23E6E789
:1013100001F0F1FB204601F0D8FBEDE7AC0E002018
:101320000080004070B50268254B04469A42A6B082
:101330000E46A16018D15422002111A803F044FDEB
:101340002023B6F5165F119317DD002311A81B9318
:1013500000F076FF2046FFF7A1FF78B34FF48063DB
:1013600011A81B9300F06CFF2046FFF797FF28B3EE
:1013700031461448FFF762FF20E0134DD5F8901076
:1013800011F002010BD14422684603F01DFD042335
:1013900000936846012302930A9300F049FBD5F8B5
:1013A00090309B07D1D54FF4406311A81B9300F0F8
:1013B00047FF2046FFF772FF0028C6D126B070BD58
:1013C0000080004030B9000800100240094B9842EC
:1013D0000BD0A3F57443984209D003F5705398429B
:1013E0000CBF02204FF0FF307047002070470120F3
:1013F000704700BF00380140F0B50E4685B0044686
:1014000044493046154601F039FE4349074628460F
:1014100001F034FE0146384601F00AFE206001303A
:1014200004D13D223D493E4801F0E2FF022E0CD09E
:101430000F2D0AD03749022001F020FE874202D149
:10144000384802F0A3FB002700E001272068364B54
:10145000984240D103F558431A6E42F480421A660E
:101460001B6E03F480430193019BFFF7AFFF00283D
:10147000606004DAA42229492C4801F0B9FF25490B
:10148000304601F0B1FD2449284601F0ADFD721C43
:1014900003D001213046FFF783FE6B1C03D00121EE
:1014A0002846FFF77DFE4FF41653A3600023E36048
:1014B000236163612362268365832046FFF7EEFE86
:1014C0003FB11B4B1B4801221A6021464C2203F0FE
:1014D00081FB05B0F0BD184B98420BD103F5E63304
:1014E0009A6D42F400329A659B6D03F400330293C7
:1014F000029BBAE7114B9842B7D103F5C833DA6DB6
:1015000042F00102DA65DB6D03F001030393039BF4
:10151000ABE700BFE0B50008B0B500085AB9000855
:10152000B6B90008D2B900080038014007BA00086F
:101530003C0D0020600E0020004400400080004070
:10154000002808DB4209012300F01F0003FA00F025
:10155000014B43F82200704700E100E000280DDB5A
:101560004309012200F01F0002FA00F02033044A70
:1015700042F82300BFF34F8FBFF36F8F704700BF58
:1015800000E100E073B5FFF721FF051E2DDB184ECB
:1015900056F82500002828D07823164C6B43E358D2
:1015A000DA69120606D5DB69190603D5124B01214B
:1015B0001B68984778236B43E358DA69920608D58D
:1015C000DB69980605D50C4B56F825001B680021F1
:1015D000984778235D436359DA69110705D5DA69BD
:1015E000120742BF9B8C9BB2019302B070BD00BF3B
:1015F000440D0020AC0E0020400D00200148FFF7F4
:10160000C1BF00BF008000400148FFF7BBBF00BF63
:10161000004400400148FFF7B5BF00BF003801405B
:10162000034B19604168034B43F82120704700BF0A
:10163000400D0020440D002070B490E8480021487F
:1016400083421FD000F53840834206D0A0F5744095
:1016500083421AD11C4C262001E01C4C2520782303
:101660001B4D7343BAB1EA58136889B943F020039C
:101670001360184B00F110029B6843F8224070BCC5
:10168000FFF75EBF144C4620E9E700242046E6E75A
:1016900043F08003ECE7EB581A6849B922F02002C6
:1016A0001A601B6813F0800F09D170BCFFF756BF9A
:1016B00022F080021A601B6813F0200FF4E770BC60
:1016C000704700BF0080004009160008151600088A
:1016D000AC0E002000ED00E0FD15000838B54568AF
:1016E00004462046FFF7BEFD0028FAD07823054ABD
:1016F000E1686B43D358988C09B9C0B238BDC0F3C8
:10170000080038BDAC0E002070B5466805460C4692
:101710002846FFF7B7FD0028FAD07823054AE96884
:101720007343D35811B9E4B21C8570BDC4F30804E7
:10173000FAE700BFAC0E0020DFF824D0002103E060
:10174000084B5B58435004310748084B42189A42F3
:10175000F6D301F0E7F9FEF743FD7047FEE700001E
:1017600000000120F0C2000888010020480B002082
:10177000FEE7704708B5032000F008F80F20FEF7D9
:1017800019FFFFF7F6FF002008BD0000074AD368E5
:1017900023F4E0631B041B0C43F0BF63000243F41B
:1017A000003300F4E0600343D360704700ED00E0D5
:1017B000704710B5044600284AD090F8413003F035
:1017C000FF021BB980F84020FFF7F2FF242384F8C2
:1017D00041302368E1681A6822F001021A606268E9
:1017E00022F070621A619A68012922F400429A601C
:1017F000A26824D142F400429A605A68616942F0BA
:10180000007242F400425A60DA6822F40042DA6060
:1018100022690A43A16942EA0122DA60216AE26987
:101820000A431A601A6842F001021A60002020235D
:10183000606484F84130206384F8420010BD42F4B3
:10184000044202299A6004BF4FF400625A60D4E750
:10185000012010BD90F84120D2B2202A10B51DD130
:1018600090F84030012B19D0242380F841300368D0
:101870001C6824F001041C601C6824F480541C6063
:101880001C6821431960196841F0010119600023A7
:1018900080F8412080F84030184610BD022010BD6D
:1018A000084B1A6E42F001021A661B6E064A82B09D
:1018B00003F001030193019B53681843506002B089
:1018C000704700BF0010024000000140024B186842
:1018D00000F4C060704700BF0070004037B51E4D77
:1018E000AB6DDA00044618D5FFF7F0FFB0F5007FC6
:1018F00023D1802C29D9A02C8CBF02200120174A8B
:10190000136823F0070303431360136803F007030E
:10191000181A18BF012003B030BDAB6D43F08053DF
:10192000AB65AB6D03F080530193019BFFF7CEFFD6
:10193000AB6D23F08053AB65D8E7802C07D808D077
:10194000A4F1700358425841D9E70020D7E703209B
:10195000D5E70220D3E700BF00100240002002407C
:101960002F4B9A6812F00C0F10B509D09A6802F04C
:101970000C020C2A2DD1DA6802F00302012A28D1C8
:101980001A682849120755BFD3F894201A68C2F381
:101990000322C2F3031251F82220996811F00C0FB0
:1019A0000CBF10460020996801F00C010C2930D1C1
:1019B000DC68D868C0F30210411C04F00300022860
:1019C00019D0032826D0B2FBF1F2D868C0F3062064
:1019D00017E09A6802F00C02042A07D09A6802F015
:1019E0000C02082A04D110480022DCE70F48FBE76C
:1019F00000200246D7E7DA680C48C2F30622B0FBA3
:101A0000F1F0DB68C3F34163013350435B00B0FB8B
:101A1000F3F010BDDA680448C2F30622EFE700BF16
:101A20000010024058BA000800127A000024F400A6
:101A300003682DE9F3410446D80639D5AB4DAB68B0
:101A400013F00C0F62D12B68990703D5A3690BB96A
:101A500001207FE02B68206A1A0756BFD5F8943022
:101A60002B681B0903F0F00383423AD2FFF736FFDD
:101A70000028EDD12B6843F008032B602B68226A05
:101A800023F0F00313432B606B68E26923F47F4378
:101A900043EA02236B60FFF763FFAB68944AC3F32A
:101AA0000313D35CD840934B18600F20FEF782FDE0
:101AB0002368D80761D42368990700F1A9802368B7
:101AC0001A0700F1E78023685B0700F1158123689E
:101AD0009A0600F17C81A16A002940F0A3810020D0
:101AE00038E02B6843F008032B602B6823F0F003E9
:101AF00003432B606B68E26923F47F4343EA0223CC
:101B00006B60FFF7EBFE0028C5D0A1E7A36923B304
:101B10002B6843F001032B60FEF752FD06462B684D
:101B20009B0711D52B6843F008032B602B68226AB2
:101B300023F0F00313432B606B68E26923F47F43C7
:101B400043EA02236B60B3E7FEF73AFD801B0228ED
:101B5000E5D9032002B0BDE8F0812B6823F0010332
:101B60002B60FEF72DFD06462B689F07A0D5FEF7DC
:101B700027FD801B0228F7D9EBE75C4DAB6803F02B
:101B80000C03082B09D0AB6803F00C030C2B0BD112
:101B9000EB6803F00303032B06D12B689A038AD565
:101BA0006368002B87D153E76368B3F5803F10D19A
:101BB0002B6843F480332B60FEF702FD06462B684A
:101BC0009B033FF578AFFEF7FBFC801BC828F6D9D6
:101BD000BFE7B3F5A02F04D12B6843F480232B601B
:101BE000E6E72A6822F480322A602A6822F48022FA
:101BF0002A60002BE0D1FEF7E3FC06462B689F032A
:101C00007FF559AFFEF7DCFC801BC828F6D9A0E7AA
:101C1000364DAB6803F00C03042B09D0AB6803F01E
:101C20000C030C2B13D1EB6803F00303022B0ED132
:101C30002B685E0503D5E368002B3FF409AF6B68A2
:101C4000226923F0F85343EA02636B6037E7E368E5
:101C50007BB12B6843F480732B60FEF7B1FC064622
:101C60002B685805EBD4FEF7ABFC801B0228F7D994
:101C70006FE72B6823F480732B60FEF7A1FC064608
:101C80002B6859057FF51BAFFEF79AFC801B0228D5
:101C9000F6D95EE76369154D9BB1D5F8943043F0F2
:101CA0000103C5F89430FEF78BFC0646D5F8943056
:101CB0009F073FF508AFFEF783FC801B0228F5D98C
:101CC00047E7D5F8943023F00103C5F89430FEF7C8
:101CD00077FC0646D5F8943098077FF5F4AEFEF70A
:101CE0006FFC801B0228F5D933E700BF00100240CB
:101CF0003EBA0008900200208F4DAB6DD90027D46A
:101D0000AB6D43F08053AB65AB6D03F08053019333
:101D1000019B0127894E3368DA051BD5A368012B87
:101D200029D1D5F8903043F00103C5F89030FEF783
:101D300047FC41F288380646D5F89030980740D5E0
:101D4000002F3FF4C4AEAB6D23F08053AB65BEE60D
:101D50000027DFE7336843F480733360FEF730FC1D
:101D600080463368DB05D9D4FEF72AFCA0EB0800D7
:101D70000228F6D9EDE6052B06D1D5F8903043F0D0
:101D80000403C5F89030CCE7D5F8902022F001028A
:101D9000C5F89020D5F8902022F00402C5F89020D4
:101DA000002BC4D1FEF70CFC41F288380646D5F86A
:101DB00090309907C4D5FEF703FC801B4045F6D947
:101DC000C7E6FEF7FDFB801B4045B5D9C1E6636A57
:101DD000594D9BB1D5F8983043F00103C5F89830C0
:101DE000FEF7EEFB0646D5F898309B073FF573AE3D
:101DF000FEF7E6FB801B0228F5D9AAE6D5F8983055
:101E000023F00103C5F89830FEF7DAFB0646D5F853
:101E100098309F077FF55FAEFEF7D2FB801B02284C
:101E2000F5D996E6444B9A6802F00C020C2A1D463E
:101E300056D01B68022923F080732B6036D1FEF741
:101E4000BFFB06462B6898012AD4A36B626BDB06A6
:101E500043EA0223E26A1343226B013A43EA021384
:101E6000E26B5208013A43EA4253226C5208013AAB
:101E700043EA4263EB602B6843F080732B60EB68AE
:101E800043F08073EB60FEF79BFB04462B689901DF
:101E90003FF525AEFEF794FB001B0228F6D958E665
:101EA000FEF78EFB801B0228CCD952E62B681A0164
:101EB0005EBFEB6823F00303EB60EB6823F08873ED
:101EC00023F48033EB60FEF77BFB04462B689B0119
:101ED0007FF505AEFEF774FB001B0228F6D938E645
:101EE0009A68E16A02F003028A427FF4B1AD9A680F
:101EF000216B02F070028A427FF4AAAD9A68616B8E
:101F000002F4FE428A427FF4A3AD9A68A16B02F408
:101F100000328A427FF49CAD9A68E16B02F4C00201
:101F20008A427FF495AD9868236C00F0C060C01AB7
:101F300018BF01200EE600BF0010024000700040F4
:101F4000564A136803F007038B422DE9F04105461A
:101F50000E462BD32B68D90735D429688A0700F1A0
:101F600083804E4A136803F007039E42C0F08480CA
:101F700011F0040F4A4C40F08A800B0706D5A36885
:101F80002A6923F4605343EAC203A360FFF7E8FC25
:101F9000A368444AC3F30313D35CD840424B186090
:101FA0000F20FEF707FB0020BDE8F081136823F047
:101FB00007030B431360136803F007039942C9D06A
:101FC0000120BDE8F0816A68354C032A23681CD1E2
:101FD00013F0007FF4D0A36823F003031343A3603E
:101FE000FEF7EEFA6B68032B074641F2883818D1EA
:101FF000A36803F00C030C2BAFD0FEF7E1FAC01B73
:102000004045F5D90320BDE8F081022A02D113F43E
:10201000003FDFE712B913F0020FDBE713F4806F24
:10202000D8E7022B0AD1A36803F00C03082B94D045
:10203000FEF7C6FAC01B4045F5D9E3E773B9A368BC
:1020400013F00C0F89D0FEF7BBFAC01B4045F6D940
:10205000D8E7FEF7B5FAC01B4045D3D8A36803F014
:102060000C03042BF5D178E70D4AA868936823F098
:10207000F0030343936074E7136823F007033343CB
:102080001360136803F007039E4299D170E7A368B9
:10209000EA6823F4E0631343A3606EE70020024084
:1020A000001002403EBA000890020020044B054A8E
:1020B0009B68C3F30223D35C034A1068D84070477F
:1020C000001002404EBA000890020020044B054A5E
:1020D0009B68C3F3C223D35C034A1068D84070479F
:1020E000001002404EBA0008900200200F23036047
:1020F0000B4B9A6802F0030242609A6802F0F00209
:1021000082609A6802F4E062C2609B68DB0803F4B4
:10211000E0630361034B1B6803F007030B60704728
:102120000010024000200240F8B5444BDA6812F07B
:10213000030F05460E461C46006839D0DA6802F0E7
:10214000030282424BD1002A49D0DB686A68C3F39C
:1021500002130133934242D1236823F0806323604A
:10216000FEF72EFA074623681A0141D4AF68002E05
:1021700045D0012E4FD12269286922F4C0024008BF
:1021800022F4FE42013842EA072242EA405222612A
:10219000236843F080632360FEF712FA0646236843
:1021A0001B0145D52369AA69134323610020F8BDAB
:1021B000022810D0032814D0012810D11B689F07D3
:1021C000F5D5E3686A6823F07303013A184340EADF
:1021D0000210E060C0E71B6813F4806FF1D10120AA
:1021E000F8BD1A689103ECD41B6813F4802FF5E74F
:1021F000FEF7E6F9C01B0228B5D90320F8BD226915
:10220000E96822F07842C90641EA072322F4FE4237
:1022100013432361BCE72369686923F0C063400866
:1022200023F4FE43013843EA072343EA4063F0E71F
:10223000FEF7C6F9801B0228B1D9DEE70010024084
:102240002DE9F743056815F4006504460ED0C16B0F
:10225000B1F5000F5BD0B1F5400F5DD0002966D11C
:102260000430FFF761FF0546002855D023689E0320
:102270006DD5924EB36DD8005BD4B36D43F08053EF
:10228000B365B36D03F080530193019B0127DFF821
:102290003082D8F8003043F48073C8F80030FEF77D
:1022A0008FF98146D8F80030D90544D5002D49D1A1
:1022B000D6F8903013F4407314D0226D934211D0AD
:1022C000D6F89030D6F8902042F48032C6F89020AC
:1022D000D6F8902023F4407322F48032C6F8902080
:1022E000C6F89030DA0709D5FEF76AF941F2883965
:1022F0008046D6F890309B0740F1C280D6F89030E7
:10230000226D23F440731343C6F890301AE06B4AF1
:10231000D36843F48033D360684AE16BD2F88830E5
:1023200023F440030B43C2F8883000259EE70125C3
:102330009CE70027ABE7FEF743F9A0EB0900022872
:10234000B0D903251FB1B36D23F08053B365236863
:10235000DF0708D55949206AD1F8882022F0030206
:102360000243C1F888209E0708D55449606AD1F815
:10237000882022F00C020243C1F88820980608D574
:102380004E49A06AD1F8882022F440620243C1F885
:102390008820990508D54949606BD1F8882022F436
:1023A00040220243C1F888205A0508D54349A06B52
:1023B000D1F8882022F440120243C1F888205F0639
:1023C00008D53E49E06AD1F8882022F44052024301
:1023D000C1F88820DE0508D53849206BD1F888205F
:1023E00022F440320243C1F8882098040FD5334AC2
:1023F000216CD2F8883023F040630B43B1F1006FB9
:10240000C2F8883044D1D36843F48013D360236882
:1024100059030FD5294A616CD2F8883023F0406304
:102420000B43B1F1006FC2F888303CD1D36843F45C
:102430008013D36023685A0412D52049A26CD1F8C6
:10244000883023F040531343B2F1805FC1F88830E5
:1024500006D10221201DFFF767FE002818BF0546A0
:1024600023681B0408D5154AE16CD2F8883023F0A4
:1024700080430B43C2F88830284603B0BDE8F083A0
:10248000FEF79EF8A0EB080048457FF632AF58E70C
:10249000B1F1806FBBD10121201DFFF745FE00285F
:1024A00018BF0546B3E7B1F1806FC3D10121201DEC
:1024B000FFF73AFE002818BF0546BBE700100240B0
:1024C00000700040054BD3F8902022F02002C3F8A2
:1024D00090209A6922F400729A61704700100240BD
:1024E000024A136843F0040313607047001002406F
:1024F000704700001A4A0368904210B502D0B0F14C
:10250000804F09D14C6823F07003904243EA0403E2
:1025100009D0B0F1804F06D0124A904203D002F5A4
:102520008062904203D1CA6823F4407313434A691E
:1025300023F08003134303608B68C3620B688362DC
:10254000074B984207D003F5A053984203D003F5F8
:102550008063984201D10B6903630123436110BD7D
:10256000002C01400040014010B50446A0B190F895
:102570003D3003F0FF021BB980F83C20FFF7B8FFA5
:10258000022384F83D302068211DFFF7B3FF0123AB
:1025900084F83D30002010BD012010BD036A10B545
:1025A00001248C4023EA04030362036A8A401A432D
:1025B000026210BD10B5044600220068FFF7EEFF6E
:1025C0002368144A934207D002F5A052934203D0E5
:1025D00002F5806293420DD1196A41F21112114243
:1025E00008D1196A40F24442114202BF5A6C22F4E7
:1025F00000425A64196A41F21112114208D1196A53
:1026000040F24442114203D11A6822F001021A60DA
:10261000002010BD002C014010B5044601220068C6
:10262000FFF7BCFF23680A4A934207D002F5A05285
:10263000934203D002F58062934203D15A6C42F474
:1026400000425A641A6842F001021A60002010BD6C
:10265000002C0140FFF7E0BF704700000268C1692D
:10266000F8B504468368006915680343606903434D
:1026700082480B432840034313605368E06823F407
:102680004053034353607E4BA0699A421CBF236AA8
:102690001843936823F4306303439360794B9A4261
:1026A00014D103F55843784AD3F8883003F0030374
:1026B000B1F5004FD35C40F0AA80082B20D8DFE8AA
:1026C00003F0778F921F9B1F1F1F9E006F4B9A4234
:1026D00007D103F5E6336E4AD3F8883003F00C03D4
:1026E000E6E7674B9A4240F0C28003F5C833D3F85F
:1026F000885005F44065B5F5806F2AD006D815B32B
:1027000001220023236663661046F8BDB5F5006F0D
:1027100006D0B5F5406FF3D14FF40040082501E035
:102720005C480225626802EB42038342E8D8B0EBC2
:10273000023FE5D8082D38D8DFE805F00F372637F7
:102740002E3737373100FFF7B1FC0028EAD10246B7
:10275000D7E7FFF705F90425F7E7FFF7A7FC62685D
:102760004FF4807156080027E1FB006700233046D4
:10277000394607F01FFE0022474BA0F540719942F1
:10278000BED82368D860BCE7444855080023002120
:10279000401941F10001ECE7FFF7E2F8DFE75008EC
:1027A0000021002310F50000F3E701220020E3E7F9
:1027B000FFF77CFC61684A0802EB4003B3FBF1F3CE
:1027C0009BB20022A3F110004FF6EF71884297D818
:1027D00023F00F012068C3F342030B43C36090E76B
:1027E000FFF774FCE6E76068430803F1F47303F550
:1027F0009043B3FBF0F3E3E7FFF7B2F8DAE7606882
:10280000430803F58033F4E701220023DAE7082BBD
:1028100030D8DFE803F005181B2F242F2F2F2700B7
:10282000FFF744FC626800EB5203B3FBF2F39BB288
:102830000022A3F110004FF6EF7188423FF660AF1F
:102840002168CB605DE7FFF741FCEBE76068430878
:1028500003F5740303F51053B3FBF0F3E7E7FFF759
:102860007FF8DFE76068430803F50043F4E7B1F55C
:10287000004FC9D001220023DBE700BFF369FFEF5F
:10288000008000400038014019BA000800440040B0
:102890001DBA00080024F400FFFC0F00000024F41F
:1028A000436ADA0710B506D50168846A4A6822F4DB
:1028B000003222434A609C0706D50168C46A4A6810
:1028C00022F4803222434A60590706D50168046B1E
:1028D0004A6822F4802222434A601A0706D501681A
:1028E000446B4A6822F4004222434A60DC0606D563
:1028F0000168846B8A6822F4805222438A609906B8
:1029000006D50168C46B8A6822F4005222438A60AB
:102910005A060FD50168046C4A6822F480122243DB
:10292000B4F5801F4A6005D14A68446C22F4C002A5
:1029300022434A601B0606D50268816C536823F463
:1029400000230B43536010BD2DE9F041069D044662
:102950000F46164698462168CA6937EA02030CBF3B
:1029600001220022B24202D00020BDE8F0816B1C9F
:10297000F2D09DB923681A6822F4D0721A609A685E
:1029800022F001029A60202384F8713084F87230BA
:10299000002384F870300320BDE8F081FDF710FEBD
:1029A000A0EB08008542D6D2E4E773B504460026C2
:1029B0004667FDF705FE23681B681A07054617D40E
:1029C00023681B685B070AD56FF07E4300930022E3
:1029D0002B464FF480012046FFF7B6FFA0B9202315
:1029E000002084F8713084F8700084F872300CE0B4
:1029F0006FF07E430093324603464FF400112046A9
:102A0000FFF7A2FF0028DBD0032002B070BD10B595
:102A1000044660B390F8713003F0FF021BB980F8F0
:102A20007020FFF719FE2268242384F871301368A0
:102A300023F0010313602046FFF710FE012816D093
:102A4000636A13B12046FFF72BFF23685A6822F40C
:102A500090425A609A6822F02A029A601A6842F0FC
:102A6000010220461A60BDE81040FFF79EBF01201A
:102A700010BD90F87030012B0FD00268242380F82D
:102A80007130136843F002031360202380F8713023
:102A9000002380F87030184670470220704790F885
:102AA0007030012B0FD00268242380F871309368B6
:102AB00043F400039360202380F87130002380F8F2
:102AC0007030184670470220704790F87030012B24
:102AD0000FD00268242380F87130136823F00203BA
:102AE0001360202380F87130002380F8703018467E
:102AF00070470220704790F87030012B0FD00268A9
:102B0000242380F87130936823F40003936020231A
:102B100080F87130002380F870301846704702202A
:102B2000704700000F49D1F8883043F47003C1F8B2
:102B300088300D4B1A68002042F001021A6098603C
:102B40001A6822F0A85222F410221A604FF4805220
:102B5000DA601A6822F480221A609861034B8B6055
:102B6000704700BF00ED00E00010024000000008C8
:102B700070B5ACB01422002101A802F025F944225E
:102B8000002106A802F020F95422002117A802F023
:102B90001BF90424012606A806940896FEF748FFB0
:102BA000054610B100202CB070BDFFF78BFC13233D
:102BB0000693B0230E930223109306231293282327
:102BC000139306A80723079509950D950C96119662
:102BD000149315941694FEF72BFF05460028E1D1B7
:102BE000FFF77EFC4FF40053179317A84FF0406394
:102BF0002793FFF725FB0F2301932146032301A809
:102C00000293039504950595FFF79AF9B0FA80F0C1
:102C10004009C8E708B5FFF7ABFF20B90248BDE897
:102C2000084000F0B3BF08BD2ABA0008264A274969
:102C300013681B0754BFD2F894301368906854BFD0
:102C4000C3F30323C3F3031300F00C0010B551F8D2
:102C500023401F490C2835D8DFE800F034343434E1
:102C6000073434341234343414001A4B0B60936834
:102C7000194AC3F30313D25C0B68D3400B6010BD39
:102C8000164BF3E7D068D36800F00300C3F30213D8
:102C9000022803F1010304D0032811D0B4FBF3F39D
:102CA00002E00C48B0FBF3F3D468D068C0F3416095
:102CB000C4F30624013063434000B3FBF0F3D5E7CF
:102CC0000648EFE70C60D2E70010024058BA00084F
:102CD000900200200024F4003EBA000800127A009E
:102CE0004FF08043064A13601A69910707D5DA68E6
:102CF000920704D56FF002021A6100F01FBA704704
:102D0000181000200048704788BA000830B589B014
:102D100001A903A8FFF7EAF9FFF7C8F91F4B0190D3
:102D20009A6D1F4C42F001029A659A6D02F0010201
:102D30000292029A9A6B42F001029A639A6B22F015
:102D400001029A63069A4FF0804323604FF0FF33ED
:102D5000E360144BFAB9B0FBF3F001380025606072
:102D60000F482561A5606561A561FFF7FDFB0E4B6E
:102D70000E4A9B680A48C3F8B0200D4B4FF08052B2
:102D80001A602946FFF766FC2268D36823F0020325
:102D9000D36009B030BD4000DDE700BF0010024045
:102DA0001810002040420F0000ED00E0E12C000868
:102DB00000E100E004480268D36823F00203D36016
:102DC0000021FFF747BC00BF181000204FF08043E0
:102DD000586A7047054B1B686FF0020258631A610E
:102DE000DA6842F00202DA60704700BF1810002073
:102DF000064B1B686FF002021A615A6942F0020228
:102E00005A61DA6842F00202DA6070471810002056
:102E1000034B1A68D36823F00203D360704700BFE6
:102E200018100020024B1B686FF002021A617047F5
:102E30001810002008B500210348FFF7BBFBBDE8D0
:102E40000840FFF7E5BF00BF181000207047A0F151
:102E5000BC00FFF7FBBFA0F1BC00FFF7F7BF00F01D
:102E6000ADB9A0F1BC00FFF7FABF00F0AAB9A0F11C
:102E7000BC00FFF7FABF000038B504461D46049BAE
:102E800000F0C0F9294604F1BC0000F015FF064B24
:102E900003F10802226003F128028833C4F8BC2041
:102EA000C4F8C030204638BD90BA000810B480B1D4
:102EB000146853680CB9DA070BD513F0010F4FEA09
:102EC00063031CBFC2581459184423465DF8044BD1
:102ED00018475DF8044B7047064B19681A1D01B975
:102EE0001A601B68934204D066220349034800F02D
:102EF0007FBA7047500D002045B700085FB7000843
:102F0000F7B51D4B04460E46174640F8043B102209
:102F1000002101F059FF00230093019302A911E958
:102F2000030004F1180282E803001449216248F208
:102F300007016162E362A4622263114A6263BFF324
:102F40006F8FBFF34F8F04F13C0584F8383084F85D
:102F5000393019469822284601F036FF094BC4F84B
:102F6000D43028463A463146FDF714FC064B20463D
:102F70001C6003B0F0BD00BF28BB000801A090E8B2
:102F8000AD2E0008A0860100580D0020C36810B5C2
:102F900004460BB19B689847204610BD38B50446DF
:102FA0000D4603685AB18268136020460121FDF77F
:102FB000F9FA29462046BDE83840FDF7EFBAC26865
:102FC000F2E770B50E4604461546FDF7C5FA013620
:102FD00006D02A4620460021BDE87040FFF7DEBF3C
:102FE00070BD0022FFF7EDBF13B5044601300FD1CD
:102FF00002B010BD9C420AD120468968FEF738F81D
:103000000021204602B0BDE81040FEF7C9B80C31DF
:10301000B1F900305A1CEDD1002300932246024939
:10302000024800F0D5FDE3E769BB000830010180EC
:10303000884207B502460BD0431C09D001310BD0A2
:10304000002306490093064800F0C2FD4FF0FF310F
:10305000084603B05DF804FB0146F9E738BB0008F9
:1030600030010180B1F900305A1C01D11846704777
:10307000834201D1486870470C31F3E7421C13B515
:1030800004460BD0FFF7EEFF431C044606D1002395
:10309000024600930349044800F09AFD204602B01E
:1030A00010BD00BF49BB00083001018013B50E4CB4
:1030B00000F098FB22884FF6FF739A420AD100F085
:1030C000A7FB0023228800930849094800F080FDEF
:1030D00002B010BD0121204600F0A8FB02B0BDE8FF
:1030E000104000F095BB00BF5C0D00207ABB0008CB
:1030F0002301048037B50C4C00F074FB258855B9CA
:1031000000F086FB228800952B460849084800F00D
:103110005FFD03B030BD0121204600F091FB03B0FC
:10312000BDE8304000F074BB5C0D00209FBB000880
:103130002401048000487047C0BB0008024B1B6894
:103140000BB102481847704794020020C0BB00082A
:103150007047704710B480B1146853680CB9DA072F
:103160000BD513F0010F4FEA63031CBFC25814596B
:10317000184423465DF8044B18475DF8044B70472C
:10318000090170B501F198050544EB6883B1441855
:10319000D4F8A4302BB940F239220649064800F091
:1031A00027F9D4F8A43028461B68BDE870401847BA
:1031B00070BD00BFE8BB0008FEBB00084C30FEF746
:1031C0008DBA10B54C300C46FEF79EFA204610BD65
:1031D000C36810B504460BB19B689847204610BDE4
:1031E000884238B504460D460AD0FFF7F1FF3CB1DE
:1031F000EB681BB15B68294620469847EB68E360A3
:10320000204638BD2DE9F04F87B000259246009545
:1032100002460195044689469B469DE80300324BD1
:1032200042F8083B314B82E80300236148F2070370
:1032300063612F4BE561A46122626362BFF36F8F0C
:10324000BFF34F8F102284F8285084F8295004F1DE
:103250002C0001F0B9FD04F14C062946102204F1BE
:103260003C0001F0B1FD04F1980829464C2230469B
:1032700001F0AAFD04F1A80729461022404601F0FA
:10328000A3FD29461022384601F09EFD1022294652
:10329000C4F8B8B002A801F097FD02A94046FFF7B4
:1032A0009FFF02A8FFF794FF1022294602A801F011
:1032B0008BFD02A93846FFF793FF02A8FFF788FFAE
:1032C000524649463046FEF797F8D4F8B8103046D3
:1032D000FEF728F8304622460649FEF7A1F92046B7
:1032E00007B0BDE8F08F00BF0CBC000801A090E85B
:1032F00055310008813100082DE9FF410646884616
:1033000056F84C3B17461B6805463C01984700F0B1
:1033100069FAD8F80C3098342C44ABB1E3680BB997
:10332000FFF7C4FE41462046FFF75AFF0122394607
:103330003046FEF781F900F06BFA2B6828465B688F
:10334000984704B0BDE8F081E3680BB1FFF7D2FE07
:1033500010220021684601F037FD69462046FFF73C
:103360003FFF6846FFF734FF0022E0E77FB51A4BC6
:103370000360044610220021684601F025FD00226A
:1033800069462046FFF7B8FF6846FFF721FF102285
:103390000021684601F018FD012269462046FFF72A
:1033A000ABFF6846FFF714FF14F1980608D004F14C
:1033B000B805B54204D0103D2846FFF709FFF8E7ED
:1033C00004F13C00FFF7E2FD04F12C00FFF7DEFD05
:1033D000204604B070BD00BF0CBC000810B5044608
:1033E000FFF7C4FF2046FDF7F8FC204610BD0000A3
:1033F00070B504460D46164600F0F4F933462A46E9
:1034000021460348FDF7A2FABDE87040FDF74ABA2D
:103410001CBC00082DE9F74FD0F804A09AF83A3008
:103420000446002B46D103685B68984763681B6AB3
:1034300098423FD0DAF82030DAF80840CAF8200085
:10344000A0EB0308DAF80C30314808EA030884429C
:1034500046464FF0000727D0DAE90A239AF83BB036
:10346000A8FB0089CDE900230025BBF1000F2BD07C
:103470005A464046494606F00BFBDDE9002312EBB5
:10348000080243EB090390465A46994606460F4602
:1034900006F00AFBB8EB000069EB0101A94208BF86
:1034A000A0420AD2CAE90A01DAE90C23B6185F4140
:1034B000CAE90C6703B0BDE8F08F013647F1000799
:1034C000001B61EB0501EDE722462B4640464946CD
:1034D00006F070FF224606460F46404649462B46F8
:1034E00006F068FFDDE9008918EB020849EB0309E3
:1034F000A94508BFA04502D2CAE90A89D4E7013626
:1035000047F10007B8EB040869EB0509F4E700BFD1
:1035100040420F00824206D98A420BD9884294BFAA
:10352000002001207047884206D98A428CBF0020C3
:103530000120704701207047002070472DE9F14FAE
:10354000476897F83A300646002B44D197F839304F
:10355000002B40D1FFF75EFF75686B68002B59D0D8
:10356000D5E90C89D3E90001894508BF804505D319
:1035700033685B6901B0BDE8F04F1847D5E9062311
:10358000B0EB080861EB09094B4508BF42452C69BF
:1035900006D3AB68254A934220D1444528BF444610
:1035A0002B6A1C44EB681C403B6AA34205D140F2E5
:1035B00007121F491F48FFF71BFF336820461B698E
:1035C000984733685B68984722460146386AFFF798
:1035D000A1FF0028CCD101B0BDE8F08F95F83B20C9
:1035E000DFF854A04FF0000B7AB14046494606F090
:1035F0005BFA10EB0A0041EB0B010C4A002306F0CA
:10360000D9FE844228BF0446CAE7A3FB080103FB96
:103610000911EEE73B69386AFA68184433681B6998
:10362000104001B0BDE8F04F184700BF40420F0006
:103630004DBC00089FBC00083F420F002DE9F04F31
:10364000436893F8382085B00546002A6FD193F877
:103650003A30002B6BD103681B6898472B68DB69F5
:103660009847066804462EB92C2232493248334E18
:10367000FFF7BEFE1F23012202FA03F1B1425FFAF7
:1036800083FB02D0013BF7D19B46D4F804A0AAF1FA
:1036900004031C2B06D93A2226492748FFF7A8FE27
:1036A0004FF0200AAAF10403072716F1FF3007FAAA
:1036B00003F7224C4FF0000343F1FF313246C4FBC5
:1036C000070106F077FE6C682A68002323606360B8
:1036D00052680393CDE90001904720626C684FF077
:1036E00000084FF000095246C4E90A89A66084F830
:1036F0003BB00120002106F0D7F9DDE90023C4E941
:103700000623039B84F8393084F83A3001380123CA
:10371000E06027612846C4E90C8984F83830FFF757
:1037200079FE284605B0BDE8F04FFFF707BF05B0AA
:10373000BDE8F08F4DBC0008A4BD000840420F005A
:1037400070B5044600F04EF82368DB68984763685C
:1037500093F83A201AB1BDE8704000F059B8012240
:1037600083F8392063685B68A3B12046FFF752FEF7
:1037700065686E68D5E90C01D6E90023994208BF57
:10378000904207D3F3686B602B68002BEAD0B068D7
:103790009847E7E76368002283F839202046FFF75F
:1037A000CDFED8E710B50446FFF748FF00F01AF841
:1037B0002046FFF72FFE00F02BF86368D3E90C01D9
:1037C00010BD08B5FFF7EEFF08BDEFF31080C04352
:1037D00000F001007047EFF30580003018BF0120B2
:1037E0007047000010B5074C2368013304D1512203
:1037F00005490648FFF7FCFD00F0DCFA23680133B9
:10380000236010BDA00D0020C3BC000818BD000837
:10381000054B1A6832B11A68013A1A601B680BB975
:1038200000F0DABA704700BFA00D0020D0E85F3F7B
:103830000B449BB2C0E8523F002AF7D118467047AC
:10384000D0E85F3F5B1A9BB2C0E8523F002AF7D135
:103850001846704770B50E46002504460560456061
:103860000F49304601F0AAFD0644266023681A7805
:103870002F2A0ED10133236025B9292209490A488C
:10388000FFF7B6FD2946304600F094F86060204608
:1038900070BD002AF0D0013301352360E6E700BF98
:1038A00049BD00084BBD00089DBD00080068704779
:1038B000406808B520B100F024F8431E5842584132
:1038C00008BD10B50446FFF7F3FF10B1606800B102
:1038D000043810BD406808B520B100F012F8B0FA05
:1038E00080F0400908BD10B50446FFF7F3FF10B1A2
:1038F000606800B1043810BD4068003018BF012076
:103900007047007B7047000038B504460A4B0360DF
:10391000002343600D46A16002730848FDF760FA7A
:1039200045B1074B1A6862601C600448FDF758FAFD
:10393000204638BD6560F8E7B8BD0008A80D002036
:10394000A40D002010B5124B036004461148FDF78A
:1039500047FAA3682BB1104A13689C4212D16368DE
:1039600013600E4B0B481A68944204BF00221A6081
:10397000FDF736FA237B13B9201FFDF747FA2046DF
:1039800010BD13465A689442FBD162685A60E8E75A
:10399000B8BD0008A80D0020A40D0020B00D002027
:1039A00010B50446FFF7CEFF2046FDF716FA204675
:1039B00010BD000070B5064614480D46FDF710FA1C
:1039C000134B1C687CB1A068E8B101F0C7FCA842A9
:1039D00019D12A463146A06801F0C8F898B90B48B9
:1039E000FDF7FEF90DE0072DF9D12A4631460948C9
:1039F00001F0BCF80028F2D10448FDF7F1F9064BBC
:103A00001C68204670BD6468DCE700BFA80D00207C
:103A1000A40D0020A6BD0008B00D00202DE9F04146
:103A20001B4C1C4E237836EA200628BF0646012B85
:103A30008EB00F46904600D1FEE7174DFFF7D2FE3D
:103A400001232370FFF7E4FE2B68342201330021A9
:103A500001A82B6001F0B8F92B680196012BCDF875
:103A60000880039704D1342201A90C4801F0B2F870
:103A7000342201A90A4801F0ADF80A4B1B680BB1CA
:103A800007489847002020700EB0BDE8F08100BFC5
:103A9000BC0D00200101FF80B40D0020C00D0020EE
:103AA000F40D0020B80D002073B5294C2168C1F336
:103AB0004173032B0CBF4D428DB2C1F307432A461D
:103AC00006462448FCF742FF6FF498731D44072D07
:103AD00009D8DFE805F004272A2D30363339A168EC
:103AE0001D48FCF733FF3046FCF730FF61681B4888
:103AF000FCF72CFFA1681A48FCF728FFE369019343
:103B0000A369009304F10C010EC91648FCF71EFFCF
:103B100021681548FCF71AFF144802B0BDE8704050
:103B2000FCF714BFA1681248DBE7A1681148D8E789
:103B3000A1681148D5E7A1681048D2E7A1681048EC
:103B4000CFE7A1680F48CCE7A1680F48C9E700BFDD
:103B5000F40D0020D5BD000826BE0008B3BE000845
:103B6000C3BE0008D6BE000825BF000871BF00080C
:103B70003BBE00084ABE000858BE00086ABE0008E6
:103B80007DBE000890BE00089EBE00080FB437B589
:103B90000C4D2978724679B90B48FFF73FFF0B4867
:103BA000FFF782FF012407A906982C700191FCF70A
:103BB000A3FE2046FCF7A8FF03B0BDE8304004B0E8
:103BC000704700BFBC0D00200001FF80C0BD000891
:103BD00010B50C4611467246FFF720FF68B9204623
:103BE000FFF762FFFFF7F7FD10B9FFF7EEFD08B929
:103BF00030BFFDE70120FCF787FF014810BD00BF83
:103C00000F01FF800020704770477047F8B50368C8
:103C10001B6D0E4604468F1898473546BD4207D0A7
:103C2000236815F8011B9B6C204698470130F5D19D
:103C3000236820465B6D9847A81BF8BDF8B503685C
:103C40001B6D0E4604468F1898473546BD4208D076
:103C500023682046DB6C9847431C02D005F8010B13
:103C6000F4E7236820465B6D9847A81BF8BD002049
:103C700070477047002070470020704710B5054B13
:103C800003605033044640F8043FFFF75BFE2046D4
:103C900010BD00BF94BF0008A0F10400EEE700BF14
:103CA00010B50446FFF7EAFF2046FDF796F82046D8
:103CB00010BDA0F10400F3E7104B13B50022044639
:103CC00040F8043BFFF720FE0D4B23606033636038
:103CD000002363610B492046FDF7E2F8034660616B
:103CE00020B1FCF716FF204602B010BD009002463E
:103CF00005490648FFF76CFFF5E700BFF4C0000870
:103D00000CC00008ECBF0008EFBF000819010180DB
:103D100010B5074B03F108026833044602604360A4
:103D2000406900F0D3F82046FFF7A8FF204610BDF9
:103D300004C000080EB477B5036807AD044655F813
:103D4000046B1B6D98476069019500F087F9019A33
:103D50006069314602F0FCFD236805465B6D204634
:103D60009847284603B0BDE8704003B0704770B56F
:103D70000446FFF7DFF90646FFF723FD0546304608
:103D8000FFF71FFD401BA042F9D370BD07EE100ADC
:103D9000DFED047A67EE277AFDEEE77A17EE900AF8
:103DA000FFF7E5BF002474494FF47A735843FFF7D7
:103DB000DEBF0000EFF31083DB4372B6044A1178D4
:103DC00029B9044903F001030B70012313707047F4
:103DD000290E0020280E002008B5EFF31083DB0722
:103DE00004D4352205490648FFF702FB054B0022A3
:103DF0001A70054B1B7803B162B608BD74C0000889
:103E0000D0C00008290E0020280E0020036870B5DD
:103E10001B690122002104469847051E0DDB23681B
:103E200002221B690021204698472368064629463E
:103E30001B690022204698473546284670BD000081
:103E4000014B1868704700BFC006002070B50C46D3
:103E5000054631B110B1836B002B2FD0B4F90C3073
:103E60000BB9002070BD2846214600F0E1F8E36A56
:103E7000064633B12846E16998470028B8BF4FF09D
:103E8000FF36A3891B061CD4216B41B104F140030A
:103E9000994202D0284606F067FD00232363616C37
:103EA00021B1284606F060FD0023636400F0C6F9E6
:103EB0000023A38100F0C4F9304670BD00F0FEF885
:103EC000CCE72846216906F04FFDDDE7024B0146AD
:103ED0001868FFF7BBBF00BFC00600208B899AB2ED
:103EE0002DE9F0410D46110780463CD46A6843F441
:103EF0000063002AAB8159DDAC6A002C4BD09BB229
:103F000003F48052002192B2D8F80060C8F8001083
:103F1000002A4FD02A6D5F0705D569682B6B521AAE
:103F20000BB1EB6BD21A4046E9690023A047441C51
:103F30004AD0AA892B692B6022F400639BB200222D
:103F40006A60DA04AB814CD4296BC8F8006011B305
:103F500005F14003994202D0404606F005FD0020DD
:103F60002863BDE8F0812E69AEB12C682E60910700
:103F70000CBF6B690023A41BAB600AE032462346EA
:103F80006F6AE9694046B8470028C0EB040406445C
:103F900004DD002CF2DC0020BDE8F081AB8943F0A9
:103FA0004003AB814FF0FF30BDE8F081EA6B002A9F
:103FB000A2DCF0E701234046E969A047431C024622
:103FC0001ED0AB89AC6AA6E7D8F800305BB9A989E6
:103FD0006B6021F400639BB22A69AB81DB042A6029
:103FE000B2D52865B0E71D2B01D0162B19D1AA89AF
:103FF0002B692B6022F400620023AA816B60A3E787
:10400000D8F80030002BDCD01D2B07D0162B05D0A4
:10401000AB8943F04003AB81BDE8F081C8F8006094
:10402000B9E7AB8943F04003AB81BDE8F08100BF45
:1040300010B5044682B008B1836B53B1B1F90C00DE
:1040400008B902B010BD204602B0BDE81040FFF72D
:1040500045BF019100F032F80199EFE720B1054B1F
:1040600001461868FFF7E4BF034B0449186800F0E5
:1040700065BC00BFC006002040C1000831400008F8
:10408000014900F035BC00BFCD3E000870B54B1EA5
:10409000682505FB03F50E4605F1740106F060FC8A
:1040A000044640B100210C30666005F168022160D1
:1040B000A06000F089FE204670BD00BF2DE9F04FE2
:1040C000846B83B00746002C65D145683348F8639C
:1040D0000423032107F53B72C7F8E412C7F8E8226E
:1040E000C7F8E04205F15C00AB812C606C60AC600D
:1040F0006C66EC812C616C61AC612146082200F099
:1041000063FEBE68DFF898B0DFF898A0DFF89890FB
:10411000DFF89880ED6101230922C5F820B0C5F8C9
:1041200024A0C5F82890C5F82C802146F381B281DF
:1041300034607460B460746634617461B461082280
:1041400006F15C00019300F03FFEFD68F66112206D
:104150000222C6F820B0C6F824A0C6F82890C6F8F7
:104160002C802146A881EA812C606C60AC606C6672
:104170002C616C61AC6105F15C00082200F024FE4A
:10418000019BED61C5F820B0C5F824A0C5F82890C2
:10419000C5F82C80BB6303B0BDE8F08F81400008F8
:1041A000BD500008E15000081951000839510008BD
:1041B000214B70B51D68AB6B0646002B2CD005F566
:1041C00038756B68AC68013B05D521E0013B5A1C92
:1041D00004F168041CD0B4F90C20002AF6D10025A3
:1041E00001234FF6FF72E281A38165662560A56019
:1041F000656025616561A561294604F15C000822BE
:1042000000F0E2FD256365636564A564204670BD2A
:104210002B682BB11D46D4E72846FFF74FFFCEE7AA
:1042200030460421FFF732FF286008B10546C8E791
:104230000C23336070BD00BF40C10008704700BF51
:10424000704700BFF0B583B00F46114601AA06467D
:1042500003F08EFC0546E8B13046FFF7A9FF04469F
:10426000C0B139463046019A4FF4DB7300F0F6FDD9
:1042700000281BDB114B124F1249134AE362EB0576
:10428000E081A581E46127626162A26205D42046D3
:1042900003B0F0BD002003B0F0BD3046214600223F
:1042A000022300F01BF8204603B0F0BD0025FFF705
:1042B000C5FFA581FFF7C4FF2846E9E7395100088B
:1042C000BD500008E150000819510008024B0A4691
:1042D00001461868FFF7B6BFC006002000F000B81E
:1042E0002DE9F04F0C4691B091461E46054610B19F
:1042F000836B002B72D0A38903F48473B3F5847F9E
:1043000074D0A76A002F00F04B81012E4AD0022EF4
:1043100008D03EB116232B604FF0FF38404611B055
:10432000BDE8F08F4FF0000A2369D046002B00F063
:104330002181A08940F61A0381B20B4043B9490597
:104340005FD49A4B9F4200F0028140F40060A0814C
:1043500028462146FFF76CFE80460028DCD14A46FD
:1043600033462846E169B8470130D5D0216B41B1C9
:1043700004F14003994202D0284606F0F5FA0023E2
:104380002363A28923692360002122F40263A381AD
:10439000616004F15C00082200F016FD404611B097
:1043A000BDE8F08F28462146FFF742FEA38903F4BB
:1043B000805292B2002A00F0BF80D4F850805E078D
:1043C00063D4180740F1B680226823690AB1D21A73
:1043D0009044C1444FF0010A0026A7E7FFF76EFEA4
:1043E000A38903F48473B3F5847F8AD128462146D8
:1043F000FFF71EFE85E7A2894FF480631A43A2816E
:10440000E364002E4CD1CB46BAF1000F57D1A389FB
:10441000DA0440F1B480206D6268216BC2EB0008C1
:10442000002900F0B580D4F83CE0CEEB0808A36B7F
:10443000206990441B1AC3EB08087344C34545DB4D
:1044400008EB0302934541D2C8EB0B084044C8EB8C
:10445000030384E8090041B104F14003994202D00A
:10446000284606F081FA00232363A38923F0200362
:10447000A38104F15C000021082200F0A5FC4FF0AC
:104480000008404611B0BDE8F08F6268236BC2EBB4
:104490000808002B4ED0E26B2369C2EB080898E7AE
:1044A0002846B4F90E1001AA00F082F800287FF423
:1044B0004FAF059B09EB030BBAF1000FA7D0216B9F
:1044C0006268002964D0D4F83CE0B0E7E36CE169AD
:1044D0005B420BEA0308424628460023B8470130F6
:1044E0003FF436AF2369216B23600023636041B141
:1044F00004F14003994202D0284606F035FA002321
:104500002363A389BBEB080B23F02003A381B0D066
:104510002846214600F0C0FC00287FF419AF6368EC
:104520009B453FF615AF2268CBEB03035A4484E862
:104530000C009EE723694CE733462846E169B847FB
:10454000B0F1FF3F80463FF4E7AEA38937E7B4F907
:104550000E100029FFF6F9AE284601AA00F028F84F
:1045600030B9029B03F47043B3F5004F3FF443AFFF
:10457000A089EAE62846214600F030FAD9E6012370
:1045800052462846E169B847431C7FF445AFDFE651
:10459000236820691B1AC3EB0808002113444DE768
:1045A0001D232B604FF0FF38B8E600BF19510008FB
:1045B00038B5084C00230546084611462360FCF731
:1045C0000AFC431C00D038BD2368002BFBD02B60B5
:1045D00038BD00BF601000202DE9F04F936883B014
:1045E000164681460C462BB38B89190726D52269BE
:1045F00022B303F0020292B23568002A2CD04FF0A9
:10460000000ADFF8E8B2D046D84534BF43465B46DF
:1046100052464846B8F1000F4FD0E169676AB84783
:10462000002856DDB3681B1A8244C0EB0808B3604B
:10463000002BE9D1002003B0BDE8F08F48462146A9
:1046400002F070FA002840F04881A389356803F031
:10465000020292B2002AD2D113F0010A42D1D0460E
:10466000B8F1000F23D09A05A76876D5B845C0F0F9
:10467000A48013F4906F40F0B2802068BB4651468E
:104680005A4600F041FBA2682168D21B01EB0B03E4
:10469000A26023604246B3689B1A9244C2EB0808AA
:1046A000B360002BC6D0A389B8F1000FDBD1D5F8D9
:1046B00000A0D5F804800835D2E7D5F800A0D5F8D9
:1046C00004800835A0E748462146FFF7B1FC0028E2
:1046D00059D0A38943F040034FF0FF30A38103B0CA
:1046E000BDE8F08F9246019293469046B8F1000FD4
:1046F0002BD0019F002F64D020682169D4F808C016
:104700006269C24534BF5346434688421F4603D9B7
:104710009444634500F3AE80934236DB1346676AE8
:10472000E16948465A46B847071ED2DDBAEB070A88
:104730003AD0B368DB1BBB44C7EB0808B360002B5F
:104740003FF478AFB8F1000FD3D10027D5F800B00F
:10475000D5F8048001970835C8E720682369984296
:1047600002D86369984572D2B84538BF47463A4681
:10477000514600F0C9FAA3682268DB1B3A44A360E3
:104780002260002B9FD03A4685E71A46594600938F
:1047900000F0BAFA009BA1682268C91ABAEB070AAE
:1047A0001344A1602360C4D148462146FFF740FC72
:1047B00000288ED1CDF804A0BBE720684746C34649
:1047C0005DE758460A21424600F088F900287FD06C
:1047D00000F1010A0127CBEB0A0A01978CE7226856
:1047E00021696769C1EB020C07EB47070CF1010275
:1047F00007EBD77742447F10974234BF17463A46BB
:104800005B054FD511464846CDF800C006F0A8F824
:10481000DDF800C08346002862D062462169CDF8E9
:1048200000C000F0D7F9A289DDF800C022F4906240
:1048300042F08002A2810BEB0C00CCEB0702C4F823
:1048400010B067612060A2604746C34617E76FF06B
:104850000042904538BF424692FBF3F202FB03F35D
:10486000676AE16948465246B84700287FF731AF8A
:10487000024610E762465946CDF800C000F044FAFF
:10488000DDF800C023686344236048462146CDF824
:1048900000C0FFF7CDFBDDF800C000287FF419AFA2
:1048A000674643E74846CDF800C006F05BF8DDF800
:1048B00000C083460028BED14846216906F054F85E
:1048C000A3890C2223F080039BB2C9F8002001E7E2
:1048D000012708F1010A01970EE74FF0FF30AAE621
:1048E0000C23C9F80030A389F4E600BF00FCFF7F69
:1048F0002DE9F04110F5387788461AD000267D68FA
:10490000BC68013D0FD4A389012B05F1FF3506D901
:10491000B4F90E300133204601D0C04706436B1C6A
:1049200004F16804EFD13F68002FE8D13046BDE8BC
:10493000F0813E463046BDE8F08100BF2DE9F843E6
:1049400010F53876804689461BD000277568B46814
:10495000013D10D4A389012B05F1FF3507D9B4F926
:104960000E3001332146404601D0C84707436B1C37
:1049700004F16804EED13668002EE7D13846BDE870
:10498000F88337463846BDE8F88300BF70B50F4E50
:104990000F4D761BB61007D0043D0024013455F8A6
:1049A000043F9847A642F9D10A4E0B4D761B06F0FC
:1049B000BFFDB61008D0043D0024013455F8043F73
:1049C0009847A642F9D170BD70BD00BF380B0020DA
:1049D000380B0020400B0020380B0020F0B58B89ED
:1049E0009AB2960791B00C46054637D4B1F90E102D
:1049F000002917DB01AAFFF7DBFD002810DB029B73
:104A000003F47043B3F500514F424F41B3F5004FEB
:104A10002CD0A38943F40063A3814FF480660BE09C
:104A2000A3899AB212F0800F43F40063A38114BFEC
:104A300040264FF4806600272846314605F090FF57
:104A4000A389002829D01B4AEA6343F08003A3818D
:104A5000206020616661A7B911B0F0BD01F1430388
:104A600001220B600B614A6111B0F0BD124AA36ACA
:104A70009342CED1A3894FF480663343A381E66489
:104A8000DAE72846B4F90E1003F0AAF80028E3D0BC
:104A9000A38943F00103A381DEE79A05DCD404F186
:104AA000430243F002030121A3812260226161617C
:104AB000D2E700BF8140000819510008024B0146AF
:104AC000186805F04DBF00BFC0060020024B01462C
:104AD000186805F049BF00BFC0060020830770B406
:104AE000C9B23FD0541E2AB303788B4223D0431C53
:104AF00004E0FCB104788C421DD0144613F0030F7F
:104B0000184604F1FF3203F10103F2D1032C14D84B
:104B1000651E4CB303788B420DD0421C002302E08B
:104B200004788C4207D0AB42104603F1010302F136
:104B30000102F5D1002070BC704741EA012603460E
:104B400046EA06461846043302687240A2F101356F
:104B500025EA020212F0803FDAD1043C032C184609
:104B6000F0D8D5E71446D1E72046E4E7032A70B42D
:104B700028D940EA01039B0713D005780C78A54299
:104B800024D1013A002305E010F8015F11F8014F2C
:104B9000A5421BD1934203F10103F5D1002070BC63
:104BA00070470C46034625681E68AE4221461846EB
:104BB00004F1040403F1040304D1043A032A18465F
:104BC0002146F0D8002AD8D11046E8E7281B70BC4F
:104BD000704700BF844641EA000313F003036DD120
:104BE000403A41D351F8043B40F8043B51F8043BB0
:104BF00040F8043B51F8043B40F8043B51F8043BB7
:104C000040F8043B51F8043B40F8043B51F8043BA6
:104C100040F8043B51F8043B40F8043B51F8043B96
:104C200040F8043B51F8043B40F8043B51F8043B86
:104C300040F8043B51F8043B40F8043B51F8043B76
:104C400040F8043B51F8043B40F8043B51F8043B66
:104C500040F8043B51F8043B40F8043B51F8043B56
:104C600040F8043B403ABDD2303211D351F8043BF6
:104C700040F8043B51F8043B40F8043B51F8043B36
:104C800040F8043B51F8043B40F8043B103AEDD2A5
:104C90000C3205D351F8043B40F8043B043AF9D2F6
:104CA000043208D0D2071CBF11F8013B00F8013BC9
:104CB00001D30B8803806046704700BF082A13D3D6
:104CC0008B078DD010F003038AD0C3F10403D21AEE
:104CD000DB071CBF11F8013B00F8013B80D331F822
:104CE000023B20F8023B7BE7043AD9D3013A11F8A2
:104CF000013B00F8013BF9D20B7803704B7843700D
:104D00008B788370604670478842F0B410D98C1855
:104D1000A0420DD28518531E42B121462A4611F8F1
:104D2000014D02F8014D013B5C1CF8D1F0BC70470D
:104D30000F2A3FD940EA01039B073FD1A2F1100798
:104D40003F0900EB071610360C46034625681D6028
:104D500065685D60A5689D60E568DD601033B342FD
:104D600004F11004F2D17B1C02F00F0C1B01BCF10A
:104D7000030F1944034423D90E461D466446043CE0
:104D800056F8047B45F8047B032CF8D8ACF10404F6
:104D900024F00304043402F0030223442144002AD3
:104DA000C4D01A4411F8014B03F8014B9342F9D1D6
:104DB000F0BC70470346002AF3D1B7E70346F0E79B
:104DC0006246002AEDD1B1E7F0B4840743D0541E07
:104DD000002A3ED0CDB2034603E0621E002C38D03C
:104DE000144603F8015B9A07F7D1032C2AD9CDB2F8
:104DF00045EA05250F2C45EA054515D9A4F110070C
:104E00003F0903F1100606EB07161A4615605560B8
:104E10009560D5601032B242F8D104F00F0401372A
:104E2000032C03EB07130DD91E462246043A032A2E
:104E300046F8045BFAD8221F22F00302043213441E
:104E400004F003042CB1C9B21C4403F8011BA342B3
:104E5000FBD1F0BC704714460346C6E770B5084C5A
:104E600006460025084611461A462560FCF782F8DA
:104E7000431C00D070BD2368002BFBD0336070BD95
:104E800060100020838903F00903092B01D0002062
:104E90007047FFF7E3B800BFF8B50C46054610B100
:104EA000836B002B43D0A28993B2990407D4636E1D
:104EB00042F4005223F400536366A28193B20021AE
:104EC0009F06616030D45E0721D5216B61B104F18A
:104ED0004003994202D0284605F046FDE36B63602B
:104EE00000202063002B3FD12369002B4CD0A689E2
:104EF000B7B2BB071ED1226922602846E169256A44
:104F00006369A8470028606009DD0020F8BDD80665
:104F10003FD519072BD442F00402A281E4E71AD14D
:104F2000A38943F02003A3814FF0FF30F8BDFFF7C2
:104F3000C5F8B8E71B4B1C4918680123A38107F08B
:104F40000907FFF7D5FC092FA681D4D128462146B1
:104F5000FEF7C4FFCFE7A289002342F04002A281FE
:104F600063604FF0FF30F8BDA36B2360F8BD2846A7
:104F70002146FFF75DF80028D6D1A289A06022F073
:104F80000802A06192B2C6E728462146FFF726FD37
:104F9000ADE742F0400209232B604FF0FF30A281C1
:104FA000F8BD00BF40C10008854E000800290CBFB5
:104FB000022200224FF4806300F000B82DE9F04196
:104FC0003C4C25688846044616461F4615B1AB6B17
:104FD000002B4FD0022E30D8002F2EDB2846214642
:104FE000FFF726F8A38900226260A2611A0628D47E
:104FF00023F083039BB2022EA3812DD0B8F1000FC2
:105000003CD0012E13D09BB203F008002A4AEA6379
:1050100080B2C4F80080C4F81080676178B113F0E2
:10502000030F18BF0027A7600020BDE8F08143F000
:1050300001037A42A381A261E5E74FF0FF30BDE8AA
:10504000F0812846216905F08FFCA38923F08303B2
:105050009BB2022EA381D1D1002004F1430243F080
:10506000020300250121A381A56022602261616104
:10507000BDE8F0812846FFF721F8ABE7002F08BF15
:105080004FF480673846FFF719FD804628B1A389A1
:1050900043F080039BB2A381B3E74FF48060FFF736
:1050A0000DFD804618B9A3894FF0FF30D5E74FF4C6
:1050B0008067ECE7C00600208140000810B50C4670
:1050C000B1F90E1003F0CAF8002803DB236D034486
:1050D000236510BDA38923F48053A38110BD00BFB5
:1050E0002DE9F0410C4689891D46CB051646074639
:1050F00006D5B4F90E100022022302F091FDA18919
:1051000021F48051A1813846B4F90E1032462B4665
:10511000BDE8F04101F0F2BC10B50C46B1F90E103B
:1051200002F07EFDA389421C0EBF23F4805343F49A
:1051300080532065A38110BDB1F90E1001F054BD5C
:1051400040EA010C1CF0070F23D1BDF1100DCDE991
:105150000245CDE900676FF000064FF0000700BF81
:10516000F0E80223F1E80245A24282FA46FCA7FADF
:1051700086FC08BFBCF1000F40F0D780AB4283FA39
:1051800046FCA7FA86FC08BFBCF1000F40F0CA80BD
:10519000E6E710F0030C21D020F0030050F8042BB8
:1051A0005FEACC7C08D00FD211F801CB5FFA92F302
:1051B000B3EB0C0C10D17BB111F801CB5FFAA2F369
:1051C000B3EB0C0C08D13BB111F801CB5FFAB2F391
:1051D000B3EB0C0C00D10BB960467047BDF1100D5C
:1051E000CDE90245CDE900676FF000064FF00007FA
:1051F00011F0030C2DD110F0040F0DD050F8042B3A
:1052000051F8044BA24282FA46FCA7FA86FC08BF7A
:10521000BCF1000F40F0898011F0040F9FD051F8CD
:10522000045B00BFF0E80223AA4282FA46FCA7FA18
:1052300086FC08BFBCF1000F71D1F1E80245A34222
:1052400083FA46FCA7FA86FC08BFBCF1000F63D1C5
:10525000E8E721F00301BCF1020F1ED03BDA51F860
:10526000045B00BF50F8043B4FEA152583FA46FC67
:10527000A7FA86FCB7EB0C2F03EA162208BFAA4256
:105280004DD151F8045BBCF1000F82EA03034FEAF1
:10529000056208BF93423CD1E4E751F8045B00BFCC
:1052A00050F8043B4FEA154583FA46FCA7FA86FC02
:1052B000B7EB0C4F03EA164208BFAA422FD151F8B0
:1052C000045BBCF1000F82EA03034FEA054208BF0A
:1052D00093421ED1E4E751F8045B00BF50F8043B51
:1052E0004FEA156583FA46FCA7FA86FCB7EB0C6F0C
:1052F00003EA166208BFAA4211D151F8045BBCF15F
:10530000000F82EA03034FEA052208BF934200D14F
:10531000E4E719BA12BA0AE019BA22BA07E011BAD8
:105320002ABA04E019BA2ABA01E011BA22BA9CFAE0
:105330008CF0DDE90067DDE902451DF1100D38B1A3
:10534000B0FA80F0C0F1180021FA00F122FA00F260
:105350000120914298BF8041704700BF20F00301B7
:1053600010F00300C0F1000051F8043B00F1040C00
:105370004FEACC0C6FF000021CBF22FA0CF2134370
:105380004FF0010C4CEA0C2C4CEA0C4CA3EB0C0239
:1053900022EA030212EACC1204BF51F8043B0430A3
:1053A000F4D013F0FF0F1FBF013013F47F4F013013
:1053B00013F47F0F18BF0130704700BFF0B40478BA
:1053C000CCB10E7807469EB10546B4420AD00A46D3
:1053D00001E09C4206D012F8013F002BF9D1281AB7
:1053E000F0BC70476C787D1C002CF8D02F46ECE7A1
:1053F0003046F0BC70472046F2E700BF00000000D6
:105400002DE9F04FC9B01C4689460A920D9002F072
:1054100003FC00681590FFF7A1FF0D9D18900F94F5
:105420001DB1AB6B002B00F00B81B9F80C2093B2CF
:1054300099040AD4D9F8641042F4005321F40051BD
:10544000A9F80C30C9F864109BB21A0740F1C28069
:10545000D9F81020002A00F0BD8003F01A030A2BAF
:1054600000F0C4809FED7A7B8DED167B002338AC75
:10547000119308942D932C931A93199310932B94B2
:105480002646DDF828C09CF80030002B00F0DC80B8
:10549000252B00F0D9800CF1010202E0252B00F051
:1054A0008B80144601322378002BF7D10A98251AF5
:1054B0007DB12C9B2D9A0A98306001332A44072B2A
:1054C00075602D922C9300F3A4800836109929441E
:1054D00010912378002B00F0A4800023651C94F821
:1054E00001808DF88F304FF0FF341A460E930993E8
:1054F0000A950B942B460133A8F12001582900F29C
:10550000FE83DFE811F03D02FC03FC030903FC030A
:10551000FC03FC03FC03FC03FC0344023902FC0310
:1055200060003B03FC037B0382038203820382034C
:1055300082038203820382038203FC03FC03FC03D5
:10554000FC03FC03FC03FC03FC03FC03FC03590306
:10555000A303FC03A303FC03FC03FC03FC0393036E
:10556000FC03FC03DA03FC03FC03FC03FC03FC0365
:10557000A902FC03FC03C902FC03FC03FC03FC03BB
:10558000FC03FC03FC03FC03FC03FC0310032203E9
:10559000A303A303A303DF022203FC03FC03E8022B
:1055A000FC03F402100222025102FC035A02FC0323
:1055B000A900FC03FC0381020A99651A78E70E9C96
:1055C0000F9164420E94099D45F00405099593F8E6
:1055D000008090E70D98494601F0A4FAA0B9B9F807
:1055E0000C3003F01A030A2B7FF43CAFB9F90E30EC
:1055F000002BFFF637AF0D980A9A4946234601F073
:10560000B3F949B0BDE8F08F4FF0FF3049B0BDE8C5
:10561000F08F0D9849462BAA04F01AF940B938AE1C
:1056200054E72D9B23B10D9849462BAA04F010F99D
:10563000B9F80C305B06E7D4109849B0BDE8F08F9C
:105640002846FEF73BFDF0E60A9C42E7AFF30080F8
:105650000000000000000000099C0A93A20640F12F
:1056600006820F9DEB1D23F0070303F1080CD3E91D
:105670000045CDF83CC001234FF0000A8DF88FA003
:105680000B99002905DBDDF824C02CF0800CCDF847
:1056900024C054EA050040F04B830B99002940F0E8
:1056A0004783002B40F0BD84DDF824C01CF0010FBF
:1056B00000F0B78448AF302307F8413D089DEC1B4C
:1056C000DDF82CC000256445A8BFA446CDF830C045
:1056D0001495BAF1000F02D00C9D01350C95099B71
:1056E00013F00203129302D00C9D02350C95DDF8E5
:1056F00024C01CF0840CCDF84CC040F016830E9DE5
:10570000DDF830C0CCEB050BBBF1000F40F30D838F
:10571000BBF1100F2D992C9ADFF828A527DD1B97D8
:1057200010255746A2460D9C06E0ABF1100BBBF1CD
:10573000100F06F1080617DD01321031072A2D91EE
:105740002C9237607560F0DD204649462BAA04F0A4
:105750007FF800287FF46CAFABF1100BBBF1100F9A
:105760002D992C9A38AEE7DC5446BA461B9F01327D
:105770000BEB010C072ACDF8B4C02C9286E8000C84
:1057800000F39E849DF88FA00836BAF1000F0FD069
:105790002C9B01330CF1010C0DF18F010122072B21
:1057A000CDF8B4C02C9386E8060000F320840836B8
:1057B000129B73B12C9B01330CF1020C24A9022221
:1057C000072BCDF8B4C02C9386E8060000F31C84A8
:1057D0000836139D802D00F04C830B9A151B002D6D
:1057E0003DDD102D2C9BDFF860A42CDD51460B9481
:1057F000AA464FF0100B62460D9C0D4606E0AAF13A
:10580000100ABAF1100F06F1080617DD0133103245
:10581000072B2D922C9386E82008F0DD2046494680
:105820002BAA04F015F800287FF402AFAAF1100AA1
:10583000BAF1100F2D9A2C9B38AEE7DC94460B9CE6
:105840002A46554692460133AC44072BCDF8B4C0E6
:105850002C93C6F800A0756000F3BD830836099D3F
:10586000EB0500F1A6822C9B37600133A444072B83
:10587000CDF8B4C074602C9300F397830836099C6C
:10588000620740D50E9D0C982C1A002C3BDD102C85
:105890002C9BDFF8B0A322DD10256246DDF83480B2
:1058A000574604E0103C102C06F1080615DD0133C4
:1058B0001032072B2D922C9337607560F2DD404635
:1058C00049462BAA03F0C4FF00287FF4B1AE103C78
:1058D000102C2D9A2C9B38AEE9DC9446BA46013345
:1058E000A444072BCDF8B4C02C93C6F800A0746074
:1058F00009DD0D9849462BAA03F0AAFF00287FF482
:1059000097AEDDF8B4C0109C0C980E9DA842ACBFB9
:10591000241864191094BCF1000F40F05283002346
:105920002C9338AEADE5DDF824C00A931CF02003BB
:1059300000F0CE810F9CE31D23F0070303F108055F
:105940000F95D3E90045002396E60F9ADDF824C0B1
:105950000A93151D30234FF078084CF0020CB7481D
:105960008DF890300F951468CDF824C000258DF87F
:1059700091801A9002237FE693F800802B22BAE5EB
:1059800093F80080002A7FF4B6AD2022B3E50F9C87
:105990000F9D24680E94002C05F10401FFF60FAE54
:1059A0000F9193F80080A6E5DDF824C04CF0200CA0
:1059B000CDF824C093F800809DE50F9C0A932768DA
:1059C0004FF0000A8DF88FA0251D002F00F06A8689
:1059D0000B9C002C3846C0F2158651462246FFF734
:1059E0007DF8002800F0AA860B9C0F95C01BA042F2
:1059F000B8BF044624EAE475CDF82CA0CDF850A039
:105A00000C959DF88FA064E6099D8C4C0A93AF0617
:105A10001A948DF88F2047D5DDF83CC00CF10703B0
:105A200023F0070303F108040F94D3E90045DDF8E0
:105A300024C01CF0010F00F0F88254EA050000F0C9
:105A4000F48230234CF0020C8DF890308DF8918068
:105A5000CDF824C002230FE6DDF824C00A934CF0F1
:105A6000100CCDF824C0099CA2063FF5FAAD099CA4
:105A7000E30600F13483DDF824C01CF0400F00F091
:105A80002E83DDF83CC0BCF800400CF1040C00256E
:105A90000123CDF83CC0EFE5099D694C0A93AF06A0
:105AA0008DF88F201A94B7D4099DED0640F1EE844D
:105AB000DDF83CC0DCF800400CF1040CCDF83CC033
:105AC0000025B4E7DDF824C04CF0400CCDF824C02C
:105AD00093F800800FE593F80080B8F16C0F194639
